{
  "contractName": "messenger",
  "abi": [
    {
      "inputs": [],
      "stateMutability": "nonpayable",
      "type": "constructor"
    },
    {
      "inputs": [],
      "name": "message",
      "outputs": [
        {
          "internalType": "string",
          "name": "",
          "type": "string"
        }
      ],
      "stateMutability": "view",
      "type": "function",
      "constant": true
    },
    {
      "inputs": [],
      "name": "messageUpdateCounter",
      "outputs": [
        {
          "internalType": "uint256",
          "name": "",
          "type": "uint256"
        }
      ],
      "stateMutability": "view",
      "type": "function",
      "constant": true
    },
    {
      "inputs": [],
      "name": "owner",
      "outputs": [
        {
          "internalType": "address",
          "name": "",
          "type": "address"
        }
      ],
      "stateMutability": "view",
      "type": "function",
      "constant": true
    },
    {
      "inputs": [
        {
          "internalType": "string",
          "name": "_message",
          "type": "string"
        }
      ],
      "name": "setMessage",
      "outputs": [],
      "stateMutability": "nonpayable",
      "type": "function"
    }
  ],
  "bytecode": "0x608060405234801561001057600080fd5b5033600260006101000a81548173ffffffffffffffffffffffffffffffffffffffff021916908373ffffffffffffffffffffffffffffffffffffffff1602179055506108f4806100616000396000f3fe608060405234801561001057600080fd5b506004361061004c5760003560e01c8063368b87721461005157806369fe76b01461006d5780638da5cb5b1461008b578063e21f37ce146100a9575b600080fd5b61006b60048036038101906100669190610397565b6100c7565b005b610075610183565b60405161008291906103f9565b60405180910390f35b610093610189565b6040516100a09190610455565b60405180910390f35b6100b16101af565b6040516100be91906104ef565b60405180910390f35b600260009054906101000a900473ffffffffffffffffffffffffffffffffffffffff1673ffffffffffffffffffffffffffffffffffffffff163373ffffffffffffffffffffffffffffffffffffffff1614610157576040517f08c379a000000000000000000000000000000000000000000000000000000000815260040161014e9061055d565b60405180910390fd5b80600090816101669190610789565b506001806000828254610179919061088a565b9250508190555050565b60015481565b600260009054906101000a900473ffffffffffffffffffffffffffffffffffffffff1681565b600080546101bc906105ac565b80601f01602080910402602001604051908101604052809291908181526020018280546101e8906105ac565b80156102355780601f1061020a57610100808354040283529160200191610235565b820191906000526020600020905b81548152906001019060200180831161021857829003601f168201915b505050505081565b6000604051905090565b600080fd5b600080fd5b600080fd5b600080fd5b6000601f19601f8301169050919050565b7f4e487b7100000000000000000000000000000000000000000000000000000000600052604160045260246000fd5b6102a48261025b565b810181811067ffffffffffffffff821117156102c3576102c261026c565b5b80604052505050565b60006102d661023d565b90506102e2828261029b565b919050565b600067ffffffffffffffff8211156103025761030161026c565b5b61030b8261025b565b9050602081019050919050565b82818337600083830152505050565b600061033a610335846102e7565b6102cc565b90508281526020810184848401111561035657610355610256565b5b610361848285610318565b509392505050565b600082601f83011261037e5761037d610251565b5b813561038e848260208601610327565b91505092915050565b6000602082840312156103ad576103ac610247565b5b600082013567ffffffffffffffff8111156103cb576103ca61024c565b5b6103d784828501610369565b91505092915050565b6000819050919050565b6103f3816103e0565b82525050565b600060208201905061040e60008301846103ea565b92915050565b600073ffffffffffffffffffffffffffffffffffffffff82169050919050565b600061043f82610414565b9050919050565b61044f81610434565b82525050565b600060208201905061046a6000830184610446565b92915050565b600081519050919050565b600082825260208201905092915050565b60005b838110156104aa57808201518184015260208101905061048f565b60008484015250505050565b60006104c182610470565b6104cb818561047b565b93506104db81856020860161048c565b6104e48161025b565b840191505092915050565b6000602082019050818103600083015261050981846104b6565b905092915050565b7f4e6f742061204f776e6572000000000000000000000000000000000000000000600082015250565b6000610547600b8361047b565b915061055282610511565b602082019050919050565b600060208201905081810360008301526105768161053a565b9050919050565b7f4e487b7100000000000000000000000000000000000000000000000000000000600052602260045260246000fd5b600060028204905060018216806105c457607f821691505b6020821081036105d7576105d661057d565b5b50919050565b60008190508160005260206000209050919050565b60006020601f8301049050919050565b600082821b905092915050565b60006008830261063f7fffffffffffffffffffffffffffffffffffffffffffffffffffffffffffffffff82610602565b6106498683610602565b95508019841693508086168417925050509392505050565b6000819050919050565b600061068661068161067c846103e0565b610661565b6103e0565b9050919050565b6000819050919050565b6106a08361066b565b6106b46106ac8261068d565b84845461060f565b825550505050565b600090565b6106c96106bc565b6106d4818484610697565b505050565b5b818110156106f8576106ed6000826106c1565b6001810190506106da565b5050565b601f82111561073d5761070e816105dd565b610717846105f2565b81016020851015610726578190505b61073a610732856105f2565b8301826106d9565b50505b505050565b600082821c905092915050565b600061076060001984600802610742565b1980831691505092915050565b6000610779838361074f565b9150826002028217905092915050565b61079282610470565b67ffffffffffffffff8111156107ab576107aa61026c565b5b6107b582546105ac565b6107c08282856106fc565b600060209050601f8311600181146107f357600084156107e1578287015190505b6107eb858261076d565b865550610853565b601f198416610801866105dd565b60005b8281101561082957848901518255600182019150602085019450602081019050610804565b868310156108465784890151610842601f89168261074f565b8355505b6001600288020188555050505b505050505050565b7f4e487b7100000000000000000000000000000000000000000000000000000000600052601160045260246000fd5b6000610895826103e0565b91506108a0836103e0565b92508282019050808211156108b8576108b761085b565b5b9291505056fea2646970667358221220c468b80b92e2acc189aa1f1ac14bac6ac7b4ca825626893a5592af240c6ea23964736f6c63430008130033",
  "immutableReferences": {},
  "source": "// SPDX-License-Identifier: UnDefined\r\n\r\npragma solidity 0.8.19;\r\n\r\ncontract messenger{\r\n\r\n    string public message;\r\n    uint public messageUpdateCounter;\r\n    address public owner;\r\n\r\n    constructor(){\r\n        owner = msg.sender;\r\n    }\r\n\r\n    modifier checkOwner{\r\n        require (msg.sender == owner,\"Not a Owner\");\r\n        _;\r\n    }\r\n\r\n    function setMessage(string memory _message) public checkOwner{        \r\n        message = _message;\r\n        messageUpdateCounter += 1;\r\n    }\r\n\r\n}",
  "sourcePath": "C:\\Users\\hp\\Desktop\\Blockchain\\07-BlockchainMessenger\\contracts\\blockChainMessenger.sol",
  "compiler": {
    "name": "solc",
    "version": "0.8.19+commit.7dd6d404.Emscripten.clang"
  },
  "schemaVersion": "3.4.14",
  "updatedAt": "2023-07-11T19:51:23.449Z",
  "networkType": "ethereum",
  "devdoc": {
    "kind": "dev",
    "methods": {},
    "version": 1
  },
  "userdoc": {
    "kind": "user",
    "methods": {},
    "version": 1
  }
}